{
  "contractName": "TcToken",
  "abi": [
    {
      "constant": true,
      "inputs": [],
      "name": "totalSupply",
      "outputs": [
        {
          "name": "",
          "type": "uint256"
        }
      ],
      "payable": false,
      "stateMutability": "view",
      "type": "function"
    },
    {
      "inputs": [],
      "payable": false,
      "stateMutability": "nonpayable",
      "type": "constructor"
    }
  ],
  "bytecode": "0x6080604052348015600f57600080fd5b50612710600081905550609e806100276000396000f300608060405260043610603f576000357c0100000000000000000000000000000000000000000000000000000000900463ffffffff16806318160ddd146044575b600080fd5b348015604f57600080fd5b506056606c565b6040518082815260200191505060405180910390f35b600054815600a165627a7a72305820b1f6af578945a1c0f7b91ab30a56bd7f8c0df65a8d2f599315085572e4c9fc9b0029",
  "source": "pragma solidity ^0.4.2;\r\n\r\ncontract TcToken {\r\n\r\n    // totalSupply is an ERC20 standard\r\n    // for such public variables we will get GET methods by default - not sure\r\n    uint256 public totalSupply;\r\n\r\n    function TcToken() public {\r\n        totalSupply = 10000;\r\n    }\r\n}",
  "sourcePath": "D:\\_\\tc-coin\\contracts\\TcToken.sol",
  "compiler": {
    "name": "solc",
    "version": "0.4.24+commit.e67f0147.Emscripten.clang"
  },
  "schemaVersion": "2.0.0",
  "updatedAt": "2018-06-09T17:39:35.439Z"
}